{
  "_format": "hh-sol-artifact-1",
  "contractName": "DegenToken",
  "sourceName": "contracts/DegenToken.sol",
  "abi": [
    {
      "inputs": [],
      "stateMutability": "nonpayable",
      "type": "constructor"
    },
    {
      "anonymous": false,
      "inputs": [
        {
          "indexed": true,
          "internalType": "address",
          "name": "owner",
          "type": "address"
        },
        {
          "indexed": true,
          "internalType": "address",
          "name": "spender",
          "type": "address"
        },
        {
          "indexed": false,
          "internalType": "uint256",
          "name": "value",
          "type": "uint256"
        }
      ],
      "name": "Approval",
      "type": "event"
    },
    {
      "anonymous": false,
      "inputs": [
        {
          "indexed": true,
          "internalType": "address",
          "name": "previousOwner",
          "type": "address"
        },
        {
          "indexed": true,
          "internalType": "address",
          "name": "newOwner",
          "type": "address"
        }
      ],
      "name": "OwnershipTransferred",
      "type": "event"
    },
    {
      "anonymous": false,
      "inputs": [
        {
          "indexed": true,
          "internalType": "address",
          "name": "from",
          "type": "address"
        },
        {
          "indexed": true,
          "internalType": "address",
          "name": "to",
          "type": "address"
        },
        {
          "indexed": false,
          "internalType": "uint256",
          "name": "value",
          "type": "uint256"
        }
      ],
      "name": "Transfer",
      "type": "event"
    },
    {
      "inputs": [
        {
          "internalType": "uint256",
          "name": "_value",
          "type": "uint256"
        }
      ],
      "name": "BurnToken",
      "outputs": [],
      "stateMutability": "nonpayable",
      "type": "function"
    },
    {
      "inputs": [
        {
          "internalType": "uint256",
          "name": "_number",
          "type": "uint256"
        }
      ],
      "name": "ReedemToken",
      "outputs": [],
      "stateMutability": "payable",
      "type": "function"
    },
    {
      "inputs": [
        {
          "internalType": "string",
          "name": "_name",
          "type": "string"
        },
        {
          "internalType": "uint256",
          "name": "_token",
          "type": "uint256"
        }
      ],
      "name": "addItem",
      "outputs": [],
      "stateMutability": "nonpayable",
      "type": "function"
    },
    {
      "inputs": [
        {
          "internalType": "address",
          "name": "owner",
          "type": "address"
        },
        {
          "internalType": "address",
          "name": "spender",
          "type": "address"
        }
      ],
      "name": "allowance",
      "outputs": [
        {
          "internalType": "uint256",
          "name": "",
          "type": "uint256"
        }
      ],
      "stateMutability": "view",
      "type": "function"
    },
    {
      "inputs": [
        {
          "internalType": "address",
          "name": "spender",
          "type": "address"
        },
        {
          "internalType": "uint256",
          "name": "amount",
          "type": "uint256"
        }
      ],
      "name": "approve",
      "outputs": [
        {
          "internalType": "bool",
          "name": "",
          "type": "bool"
        }
      ],
      "stateMutability": "nonpayable",
      "type": "function"
    },
    {
      "inputs": [
        {
          "internalType": "address",
          "name": "account",
          "type": "address"
        }
      ],
      "name": "balanceOf",
      "outputs": [
        {
          "internalType": "uint256",
          "name": "",
          "type": "uint256"
        }
      ],
      "stateMutability": "view",
      "type": "function"
    },
    {
      "inputs": [],
      "name": "decimals",
      "outputs": [
        {
          "internalType": "uint8",
          "name": "",
          "type": "uint8"
        }
      ],
      "stateMutability": "view",
      "type": "function"
    },
    {
      "inputs": [
        {
          "internalType": "address",
          "name": "spender",
          "type": "address"
        },
        {
          "internalType": "uint256",
          "name": "subtractedValue",
          "type": "uint256"
        }
      ],
      "name": "decreaseAllowance",
      "outputs": [
        {
          "internalType": "bool",
          "name": "",
          "type": "bool"
        }
      ],
      "stateMutability": "nonpayable",
      "type": "function"
    },
    {
      "inputs": [],
      "name": "getBalance",
      "outputs": [
        {
          "internalType": "uint256",
          "name": "",
          "type": "uint256"
        }
      ],
      "stateMutability": "view",
      "type": "function"
    },
    {
      "inputs": [
        {
          "internalType": "address",
          "name": "spender",
          "type": "address"
        },
        {
          "internalType": "uint256",
          "name": "addedValue",
          "type": "uint256"
        }
      ],
      "name": "increaseAllowance",
      "outputs": [
        {
          "internalType": "bool",
          "name": "",
          "type": "bool"
        }
      ],
      "stateMutability": "nonpayable",
      "type": "function"
    },
    {
      "inputs": [
        {
          "internalType": "uint256",
          "name": "",
          "type": "uint256"
        }
      ],
      "name": "items",
      "outputs": [
        {
          "internalType": "string",
          "name": "name",
          "type": "string"
        },
        {
          "internalType": "uint256",
          "name": "token",
          "type": "uint256"
        }
      ],
      "stateMutability": "view",
      "type": "function"
    },
    {
      "inputs": [
        {
          "internalType": "address",
          "name": "to",
          "type": "address"
        },
        {
          "internalType": "uint256",
          "name": "amount",
          "type": "uint256"
        }
      ],
      "name": "mint",
      "outputs": [],
      "stateMutability": "nonpayable",
      "type": "function"
    },
    {
      "inputs": [],
      "name": "name",
      "outputs": [
        {
          "internalType": "string",
          "name": "",
          "type": "string"
        }
      ],
      "stateMutability": "view",
      "type": "function"
    },
    {
      "inputs": [],
      "name": "owner",
      "outputs": [
        {
          "internalType": "address",
          "name": "",
          "type": "address"
        }
      ],
      "stateMutability": "view",
      "type": "function"
    },
    {
      "inputs": [],
      "name": "renounceOwnership",
      "outputs": [],
      "stateMutability": "nonpayable",
      "type": "function"
    },
    {
      "inputs": [],
      "name": "symbol",
      "outputs": [
        {
          "internalType": "string",
          "name": "",
          "type": "string"
        }
      ],
      "stateMutability": "view",
      "type": "function"
    },
    {
      "inputs": [],
      "name": "totalSupply",
      "outputs": [
        {
          "internalType": "uint256",
          "name": "",
          "type": "uint256"
        }
      ],
      "stateMutability": "view",
      "type": "function"
    },
    {
      "inputs": [
        {
          "internalType": "address",
          "name": "to",
          "type": "address"
        },
        {
          "internalType": "uint256",
          "name": "amount",
          "type": "uint256"
        }
      ],
      "name": "transfer",
      "outputs": [
        {
          "internalType": "bool",
          "name": "",
          "type": "bool"
        }
      ],
      "stateMutability": "nonpayable",
      "type": "function"
    },
    {
      "inputs": [
        {
          "internalType": "address",
          "name": "from",
          "type": "address"
        },
        {
          "internalType": "address",
          "name": "to",
          "type": "address"
        },
        {
          "internalType": "uint256",
          "name": "amount",
          "type": "uint256"
        }
      ],
      "name": "transferFrom",
      "outputs": [
        {
          "internalType": "bool",
          "name": "",
          "type": "bool"
        }
      ],
      "stateMutability": "nonpayable",
      "type": "function"
    },
    {
      "inputs": [
        {
          "internalType": "address",
          "name": "newOwner",
          "type": "address"
        }
      ],
      "name": "transferOwnership",
      "outputs": [],
      "stateMutability": "nonpayable",
      "type": "function"
    },
    {
      "inputs": [
        {
          "internalType": "address",
          "name": "_receiver",
          "type": "address"
        },
        {
          "internalType": "uint256",
          "name": "_value",
          "type": "uint256"
        }
      ],
      "name": "transferToken",
      "outputs": [],
      "stateMutability": "nonpayable",
      "type": "function"
    }
  ],
  "bytecode": "0x60806040523480156200001157600080fd5b506040518060400160405280600581526020017f446567656e0000000000000000000000000000000000000000000000000000008152506040518060400160405280600381526020017f44474e000000000000000000000000000000000000000000000000000000000081525081600390816200008f919062000412565b508060049081620000a1919062000412565b505050620000c4620000b8620000ca60201b60201c565b620000d260201b60201c565b620004f9565b600033905090565b6000600560009054906101000a900473ffffffffffffffffffffffffffffffffffffffff16905081600560006101000a81548173ffffffffffffffffffffffffffffffffffffffff021916908373ffffffffffffffffffffffffffffffffffffffff1602179055508173ffffffffffffffffffffffffffffffffffffffff168173ffffffffffffffffffffffffffffffffffffffff167f8be0079c531659141344cd1fd0a4f28419497f9722a3daafe3b4186f6b6457e060405160405180910390a35050565b600081519050919050565b7f4e487b7100000000000000000000000000000000000000000000000000000000600052604160045260246000fd5b7f4e487b7100000000000000000000000000000000000000000000000000000000600052602260045260246000fd5b600060028204905060018216806200021a57607f821691505b60208210810362000230576200022f620001d2565b5b50919050565b60008190508160005260206000209050919050565b60006020601f8301049050919050565b600082821b905092915050565b6000600883026200029a7fffffffffffffffffffffffffffffffffffffffffffffffffffffffffffffffff826200025b565b620002a686836200025b565b95508019841693508086168417925050509392505050565b6000819050919050565b6000819050919050565b6000620002f3620002ed620002e784620002be565b620002c8565b620002be565b9050919050565b6000819050919050565b6200030f83620002d2565b620003276200031e82620002fa565b84845462000268565b825550505050565b600090565b6200033e6200032f565b6200034b81848462000304565b505050565b5b8181101562000373576200036760008262000334565b60018101905062000351565b5050565b601f821115620003c2576200038c8162000236565b62000397846200024b565b81016020851015620003a7578190505b620003bf620003b6856200024b565b83018262000350565b50505b505050565b600082821c905092915050565b6000620003e760001984600802620003c7565b1980831691505092915050565b6000620004028383620003d4565b9150826002028217905092915050565b6200041d8262000198565b67ffffffffffffffff811115620004395762000438620001a3565b5b62000445825462000201565b6200045282828562000377565b600060209050601f8311600181146200048a576000841562000475578287015190505b620004818582620003f4565b865550620004f1565b601f1984166200049a8662000236565b60005b82811015620004c4578489015182556001820191506020850194506020810190506200049d565b86831015620004e45784890151620004e0601f891682620003d4565b8355505b6001600288020188555050505b505050505050565b6126c580620005096000396000f3fe60806040526004361061012a5760003560e01c806362d6bbdf116100ab578063a457c2d71161006f578063a457c2d7146103e0578063a9059cbb1461041d578063bfb231d21461045a578063dd62ed3e14610498578063e2a89be4146104d5578063f2fde38b146104f15761012a565b806362d6bbdf1461030d57806370a0823114610336578063715018a6146103735780638da5cb5b1461038a57806395d89b41146103b55761012a565b806318160ddd116100f257806318160ddd1461021457806323b872dd1461023f578063313ce5671461027c57806339509351146102a757806340c10f19146102e45761012a565b8063066548811461012f57806306fdde0314610158578063095ea7b3146101835780631072cbea146101c057806312065fe0146101e9575b600080fd5b34801561013b57600080fd5b5061015660048036038101906101519190611608565b61051a565b005b34801561016457600080fd5b5061016d610572565b60405161017a91906116c5565b60405180910390f35b34801561018f57600080fd5b506101aa60048036038101906101a59190611745565b610604565b6040516101b791906117a0565b60405180910390f35b3480156101cc57600080fd5b506101e760048036038101906101e29190611745565b610627565b005b3480156101f557600080fd5b506101fe61068d565b60405161020b91906117ca565b60405180910390f35b34801561022057600080fd5b5061022961070e565b60405161023691906117ca565b60405180910390f35b34801561024b57600080fd5b50610266600480360381019061026191906117e5565b610718565b60405161027391906117a0565b60405180910390f35b34801561028857600080fd5b50610291610747565b60405161029e9190611854565b60405180910390f35b3480156102b357600080fd5b506102ce60048036038101906102c99190611745565b610750565b6040516102db91906117a0565b60405180910390f35b3480156102f057600080fd5b5061030b60048036038101906103069190611745565b610787565b005b34801561031957600080fd5b50610334600480360381019061032f91906119a4565b61079d565b005b34801561034257600080fd5b5061035d60048036038101906103589190611a00565b61080b565b60405161036a91906117ca565b60405180910390f35b34801561037f57600080fd5b50610388610853565b005b34801561039657600080fd5b5061039f610867565b6040516103ac9190611a3c565b60405180910390f35b3480156103c157600080fd5b506103ca610891565b6040516103d791906116c5565b60405180910390f35b3480156103ec57600080fd5b5061040760048036038101906104029190611745565b610923565b60405161041491906117a0565b60405180910390f35b34801561042957600080fd5b50610444600480360381019061043f9190611745565b61099a565b60405161045191906117a0565b60405180910390f35b34801561046657600080fd5b50610481600480360381019061047c9190611608565b6109bd565b60405161048f929190611a57565b60405180910390f35b3480156104a457600080fd5b506104bf60048036038101906104ba9190611a87565b610a79565b6040516104cc91906117ca565b60405180910390f35b6104ef60048036038101906104ea9190611608565b610b00565b005b3480156104fd57600080fd5b5061051860048036038101906105139190611a00565b610bf7565b005b806105243361080b565b1015610565576040517f08c379a000000000000000000000000000000000000000000000000000000000815260040161055c90611b13565b60405180910390fd5b61056f3382610c7a565b50565b60606003805461058190611b62565b80601f01602080910402602001604051908101604052809291908181526020018280546105ad90611b62565b80156105fa5780601f106105cf576101008083540402835291602001916105fa565b820191906000526020600020905b8154815290600101906020018083116105dd57829003601f168201915b5050505050905090565b60008061060f610e47565b905061061c818585610e4f565b600191505092915050565b806106313361080b565b1015610672576040517f08c379a000000000000000000000000000000000000000000000000000000000815260040161066990611bdf565b60405180910390fd5b61067c3382610604565b50610688338383610718565b505050565b60003073ffffffffffffffffffffffffffffffffffffffff166370a08231336040518263ffffffff1660e01b81526004016106c89190611a3c565b602060405180830381865afa1580156106e5573d6000803e3d6000fd5b505050506040513d601f19601f820116820180604052508101906107099190611c14565b905090565b6000600254905090565b600080610723610e47565b9050610730858285611018565b61073b8585856110a4565b60019150509392505050565b60006012905090565b60008061075b610e47565b905061077c81858561076d8589610a79565b6107779190611c70565b610e4f565b600191505092915050565b61078f61131a565b6107998282611398565b5050565b6107a561131a565b6006604051806040016040528084815260200183815250908060018154018082558091505060019003906000526020600020906002020160009091909190915060008201518160000190816107fa9190611e50565b506020820151816001015550505050565b60008060008373ffffffffffffffffffffffffffffffffffffffff1673ffffffffffffffffffffffffffffffffffffffff168152602001908152602001600020549050919050565b61085b61131a565b61086560006114ee565b565b6000600560009054906101000a900473ffffffffffffffffffffffffffffffffffffffff16905090565b6060600480546108a090611b62565b80601f01602080910402602001604051908101604052809291908181526020018280546108cc90611b62565b80156109195780601f106108ee57610100808354040283529160200191610919565b820191906000526020600020905b8154815290600101906020018083116108fc57829003601f168201915b5050505050905090565b60008061092e610e47565b9050600061093c8286610a79565b905083811015610981576040517f08c379a000000000000000000000000000000000000000000000000000000000815260040161097890611f94565b60405180910390fd5b61098e8286868403610e4f565b60019250505092915050565b6000806109a5610e47565b90506109b28185856110a4565b600191505092915050565b600681815481106109cd57600080fd5b90600052602060002090600202016000915090508060000180546109f090611b62565b80601f0160208091040260200160405190810160405280929190818152602001828054610a1c90611b62565b8015610a695780601f10610a3e57610100808354040283529160200191610a69565b820191906000526020600020905b815481529060010190602001808311610a4c57829003601f168201915b5050505050908060010154905082565b6000600160008473ffffffffffffffffffffffffffffffffffffffff1673ffffffffffffffffffffffffffffffffffffffff16815260200190815260200160002060008373ffffffffffffffffffffffffffffffffffffffff1673ffffffffffffffffffffffffffffffffffffffff16815260200190815260200160002054905092915050565b600680549050811115610b48576040517f08c379a0000000000000000000000000000000000000000000000000000000008152600401610b3f90612000565b60405180910390fd5b80610b523361080b565b1015610b93576040517f08c379a0000000000000000000000000000000000000000000000000000000008152600401610b8a9061206c565b60405180910390fd5b610bc23360068381548110610bab57610baa61208c565b5b906000526020600020906002020160010154610604565b50610bf3333060068481548110610bdc57610bdb61208c565b5b906000526020600020906002020160010154610718565b5050565b610bff61131a565b600073ffffffffffffffffffffffffffffffffffffffff168173ffffffffffffffffffffffffffffffffffffffff1603610c6e576040517f08c379a0000000000000000000000000000000000000000000000000000000008152600401610c659061212d565b60405180910390fd5b610c77816114ee565b50565b600073ffffffffffffffffffffffffffffffffffffffff168273ffffffffffffffffffffffffffffffffffffffff1603610ce9576040517f08c379a0000000000000000000000000000000000000000000000000000000008152600401610ce0906121bf565b60405180910390fd5b610cf5826000836115b4565b60008060008473ffffffffffffffffffffffffffffffffffffffff1673ffffffffffffffffffffffffffffffffffffffff16815260200190815260200160002054905081811015610d7b576040517f08c379a0000000000000000000000000000000000000000000000000000000008152600401610d7290612251565b60405180910390fd5b8181036000808573ffffffffffffffffffffffffffffffffffffffff1673ffffffffffffffffffffffffffffffffffffffff1681526020019081526020016000208190555081600260008282540392505081905550600073ffffffffffffffffffffffffffffffffffffffff168373ffffffffffffffffffffffffffffffffffffffff167fddf252ad1be2c89b69c2b068fc378daa952ba7f163c4a11628f55a4df523b3ef84604051610e2e91906117ca565b60405180910390a3610e42836000846115b9565b505050565b600033905090565b600073ffffffffffffffffffffffffffffffffffffffff168373ffffffffffffffffffffffffffffffffffffffff1603610ebe576040517f08c379a0000000000000000000000000000000000000000000000000000000008152600401610eb5906122e3565b60405180910390fd5b600073ffffffffffffffffffffffffffffffffffffffff168273ffffffffffffffffffffffffffffffffffffffff1603610f2d576040517f08c379a0000000000000000000000000000000000000000000000000000000008152600401610f2490612375565b60405180910390fd5b80600160008573ffffffffffffffffffffffffffffffffffffffff1673ffffffffffffffffffffffffffffffffffffffff16815260200190815260200160002060008473ffffffffffffffffffffffffffffffffffffffff1673ffffffffffffffffffffffffffffffffffffffff168152602001908152602001600020819055508173ffffffffffffffffffffffffffffffffffffffff168373ffffffffffffffffffffffffffffffffffffffff167f8c5be1e5ebec7d5bd14f71427d1e84f3dd0314c0f7b2291e5b200ac8c7c3b9258360405161100b91906117ca565b60405180910390a3505050565b60006110248484610a79565b90507fffffffffffffffffffffffffffffffffffffffffffffffffffffffffffffffff811461109e5781811015611090576040517f08c379a0000000000000000000000000000000000000000000000000000000008152600401611087906123e1565b60405180910390fd5b61109d8484848403610e4f565b5b50505050565b600073ffffffffffffffffffffffffffffffffffffffff168373ffffffffffffffffffffffffffffffffffffffff1603611113576040517f08c379a000000000000000000000000000000000000000000000000000000000815260040161110a90612473565b60405180910390fd5b600073ffffffffffffffffffffffffffffffffffffffff168273ffffffffffffffffffffffffffffffffffffffff1603611182576040517f08c379a000000000000000000000000000000000000000000000000000000000815260040161117990612505565b60405180910390fd5b61118d8383836115b4565b60008060008573ffffffffffffffffffffffffffffffffffffffff1673ffffffffffffffffffffffffffffffffffffffff16815260200190815260200160002054905081811015611213576040517f08c379a000000000000000000000000000000000000000000000000000000000815260040161120a90612597565b60405180910390fd5b8181036000808673ffffffffffffffffffffffffffffffffffffffff1673ffffffffffffffffffffffffffffffffffffffff16815260200190815260200160002081905550816000808573ffffffffffffffffffffffffffffffffffffffff1673ffffffffffffffffffffffffffffffffffffffff168152602001908152602001600020600082825401925050819055508273ffffffffffffffffffffffffffffffffffffffff168473ffffffffffffffffffffffffffffffffffffffff167fddf252ad1be2c89b69c2b068fc378daa952ba7f163c4a11628f55a4df523b3ef8460405161130191906117ca565b60405180910390a36113148484846115b9565b50505050565b611322610e47565b73ffffffffffffffffffffffffffffffffffffffff16611340610867565b73ffffffffffffffffffffffffffffffffffffffff1614611396576040517f08c379a000000000000000000000000000000000000000000000000000000000815260040161138d90612603565b60405180910390fd5b565b600073ffffffffffffffffffffffffffffffffffffffff168273ffffffffffffffffffffffffffffffffffffffff1603611407576040517f08c379a00000000000000000000000000000000000000000000000000000000081526004016113fe9061266f565b60405180910390fd5b611413600083836115b4565b80600260008282546114259190611c70565b92505081905550806000808473ffffffffffffffffffffffffffffffffffffffff1673ffffffffffffffffffffffffffffffffffffffff168152602001908152602001600020600082825401925050819055508173ffffffffffffffffffffffffffffffffffffffff16600073ffffffffffffffffffffffffffffffffffffffff167fddf252ad1be2c89b69c2b068fc378daa952ba7f163c4a11628f55a4df523b3ef836040516114d691906117ca565b60405180910390a36114ea600083836115b9565b5050565b6000600560009054906101000a900473ffffffffffffffffffffffffffffffffffffffff16905081600560006101000a81548173ffffffffffffffffffffffffffffffffffffffff021916908373ffffffffffffffffffffffffffffffffffffffff1602179055508173ffffffffffffffffffffffffffffffffffffffff168173ffffffffffffffffffffffffffffffffffffffff167f8be0079c531659141344cd1fd0a4f28419497f9722a3daafe3b4186f6b6457e060405160405180910390a35050565b505050565b505050565b6000604051905090565b600080fd5b600080fd5b6000819050919050565b6115e5816115d2565b81146115f057600080fd5b50565b600081359050611602816115dc565b92915050565b60006020828403121561161e5761161d6115c8565b5b600061162c848285016115f3565b91505092915050565b600081519050919050565b600082825260208201905092915050565b60005b8381101561166f578082015181840152602081019050611654565b60008484015250505050565b6000601f19601f8301169050919050565b600061169782611635565b6116a18185611640565b93506116b1818560208601611651565b6116ba8161167b565b840191505092915050565b600060208201905081810360008301526116df818461168c565b905092915050565b600073ffffffffffffffffffffffffffffffffffffffff82169050919050565b6000611712826116e7565b9050919050565b61172281611707565b811461172d57600080fd5b50565b60008135905061173f81611719565b92915050565b6000806040838503121561175c5761175b6115c8565b5b600061176a85828601611730565b925050602061177b858286016115f3565b9150509250929050565b60008115159050919050565b61179a81611785565b82525050565b60006020820190506117b56000830184611791565b92915050565b6117c4816115d2565b82525050565b60006020820190506117df60008301846117bb565b92915050565b6000806000606084860312156117fe576117fd6115c8565b5b600061180c86828701611730565b935050602061181d86828701611730565b925050604061182e868287016115f3565b9150509250925092565b600060ff82169050919050565b61184e81611838565b82525050565b60006020820190506118696000830184611845565b92915050565b600080fd5b600080fd5b7f4e487b7100000000000000000000000000000000000000000000000000000000600052604160045260246000fd5b6118b18261167b565b810181811067ffffffffffffffff821117156118d0576118cf611879565b5b80604052505050565b60006118e36115be565b90506118ef82826118a8565b919050565b600067ffffffffffffffff82111561190f5761190e611879565b5b6119188261167b565b9050602081019050919050565b82818337600083830152505050565b6000611947611942846118f4565b6118d9565b90508281526020810184848401111561196357611962611874565b5b61196e848285611925565b509392505050565b600082601f83011261198b5761198a61186f565b5b813561199b848260208601611934565b91505092915050565b600080604083850312156119bb576119ba6115c8565b5b600083013567ffffffffffffffff8111156119d9576119d86115cd565b5b6119e585828601611976565b92505060206119f6858286016115f3565b9150509250929050565b600060208284031215611a1657611a156115c8565b5b6000611a2484828501611730565b91505092915050565b611a3681611707565b82525050565b6000602082019050611a516000830184611a2d565b92915050565b60006040820190508181036000830152611a71818561168c565b9050611a8060208301846117bb565b9392505050565b60008060408385031215611a9e57611a9d6115c8565b5b6000611aac85828601611730565b9250506020611abd85828601611730565b9150509250929050565b7f496e73756666696369656e7420746f6b656e0000000000000000000000000000600082015250565b6000611afd601283611640565b9150611b0882611ac7565b602082019050919050565b60006020820190508181036000830152611b2c81611af0565b9050919050565b7f4e487b7100000000000000000000000000000000000000000000000000000000600052602260045260246000fd5b60006002820490506001821680611b7a57607f821691505b602082108103611b8d57611b8c611b33565b5b50919050565b7f596f7520646f206e6f74206861766520656e6f75676820546f6b656e00000000600082015250565b6000611bc9601c83611640565b9150611bd482611b93565b602082019050919050565b60006020820190508181036000830152611bf881611bbc565b9050919050565b600081519050611c0e816115dc565b92915050565b600060208284031215611c2a57611c296115c8565b5b6000611c3884828501611bff565b91505092915050565b7f4e487b7100000000000000000000000000000000000000000000000000000000600052601160045260246000fd5b6000611c7b826115d2565b9150611c86836115d2565b9250828201905080821115611c9e57611c9d611c41565b5b92915050565b60008190508160005260206000209050919050565b60006020601f8301049050919050565b600082821b905092915050565b600060088302611d067fffffffffffffffffffffffffffffffffffffffffffffffffffffffffffffffff82611cc9565b611d108683611cc9565b95508019841693508086168417925050509392505050565b6000819050919050565b6000611d4d611d48611d43846115d2565b611d28565b6115d2565b9050919050565b6000819050919050565b611d6783611d32565b611d7b611d7382611d54565b848454611cd6565b825550505050565b600090565b611d90611d83565b611d9b818484611d5e565b505050565b5b81811015611dbf57611db4600082611d88565b600181019050611da1565b5050565b601f821115611e0457611dd581611ca4565b611dde84611cb9565b81016020851015611ded578190505b611e01611df985611cb9565b830182611da0565b50505b505050565b600082821c905092915050565b6000611e2760001984600802611e09565b1980831691505092915050565b6000611e408383611e16565b9150826002028217905092915050565b611e5982611635565b67ffffffffffffffff811115611e7257611e71611879565b5b611e7c8254611b62565b611e87828285611dc3565b600060209050601f831160018114611eba5760008415611ea8578287015190505b611eb28582611e34565b865550611f1a565b601f198416611ec886611ca4565b60005b82811015611ef057848901518255600182019150602085019450602081019050611ecb565b86831015611f0d5784890151611f09601f891682611e16565b8355505b6001600288020188555050505b505050505050565b7f45524332303a2064656372656173656420616c6c6f77616e63652062656c6f7760008201527f207a65726f000000000000000000000000000000000000000000000000000000602082015250565b6000611f7e602583611640565b9150611f8982611f22565b604082019050919050565b60006020820190508181036000830152611fad81611f71565b9050919050565b7f6e6f20737563682070726f647563740000000000000000000000000000000000600082015250565b6000611fea600f83611640565b9150611ff582611fb4565b602082019050919050565b6000602082019050818103600083015261201981611fdd565b9050919050565b7f6e6f20656e6f75676820746f6b656e0000000000000000000000000000000000600082015250565b6000612056600f83611640565b915061206182612020565b602082019050919050565b6000602082019050818103600083015261208581612049565b9050919050565b7f4e487b7100000000000000000000000000000000000000000000000000000000600052603260045260246000fd5b7f4f776e61626c653a206e6577206f776e657220697320746865207a65726f206160008201527f6464726573730000000000000000000000000000000000000000000000000000602082015250565b6000612117602683611640565b9150612122826120bb565b604082019050919050565b600060208201905081810360008301526121468161210a565b9050919050565b7f45524332303a206275726e2066726f6d20746865207a65726f2061646472657360008201527f7300000000000000000000000000000000000000000000000000000000000000602082015250565b60006121a9602183611640565b91506121b48261214d565b604082019050919050565b600060208201905081810360008301526121d88161219c565b9050919050565b7f45524332303a206275726e20616d6f756e7420657863656564732062616c616e60008201527f6365000000000000000000000000000000000000000000000000000000000000602082015250565b600061223b602283611640565b9150612246826121df565b604082019050919050565b6000602082019050818103600083015261226a8161222e565b9050919050565b7f45524332303a20617070726f76652066726f6d20746865207a65726f2061646460008201527f7265737300000000000000000000000000000000000000000000000000000000602082015250565b60006122cd602483611640565b91506122d882612271565b604082019050919050565b600060208201905081810360008301526122fc816122c0565b9050919050565b7f45524332303a20617070726f766520746f20746865207a65726f20616464726560008201527f7373000000000000000000000000000000000000000000000000000000000000602082015250565b600061235f602283611640565b915061236a82612303565b604082019050919050565b6000602082019050818103600083015261238e81612352565b9050919050565b7f45524332303a20696e73756666696369656e7420616c6c6f77616e6365000000600082015250565b60006123cb601d83611640565b91506123d682612395565b602082019050919050565b600060208201905081810360008301526123fa816123be565b9050919050565b7f45524332303a207472616e736665722066726f6d20746865207a65726f20616460008201527f6472657373000000000000000000000000000000000000000000000000000000602082015250565b600061245d602583611640565b915061246882612401565b604082019050919050565b6000602082019050818103600083015261248c81612450565b9050919050565b7f45524332303a207472616e7366657220746f20746865207a65726f206164647260008201527f6573730000000000000000000000000000000000000000000000000000000000602082015250565b60006124ef602383611640565b91506124fa82612493565b604082019050919050565b6000602082019050818103600083015261251e816124e2565b9050919050565b7f45524332303a207472616e7366657220616d6f756e742065786365656473206260008201527f616c616e63650000000000000000000000000000000000000000000000000000602082015250565b6000612581602683611640565b915061258c82612525565b604082019050919050565b600060208201905081810360008301526125b081612574565b9050919050565b7f4f776e61626c653a2063616c6c6572206973206e6f7420746865206f776e6572600082015250565b60006125ed602083611640565b91506125f8826125b7565b602082019050919050565b6000602082019050818103600083015261261c816125e0565b9050919050565b7f45524332303a206d696e7420746f20746865207a65726f206164647265737300600082015250565b6000612659601f83611640565b915061266482612623565b602082019050919050565b600060208201905081810360008301526126888161264c565b905091905056fea2646970667358221220a5aba6494081dbfd16dc3154fb331b21f850dc9783372ac0dd021cbeed7db38d64736f6c63430008120033",
  "linkReferences": {},
  "deployedLinkReferences": {}
}